:100000000C9474000C9470070C9470070C94700797
:100010000C9470070C9470070C946F040C94700788
:100020000C9470070C9470070C9470070C94A20049
:100030000C9470030C9470070C9470070C94700768
:100040000C9470070C9470070C9470070C94700754
:100050000C94700707634236B79BD8A71A396856C5
:1000600018AEBAAB558C1D3CB7CC5763BD6DEDFDDA
:10007000753EF6177231BF000000803F0800000097
:10008000BE922449123EABAAAA2ABECDCCCC4C3E8D
:1000900000000080BEABAAAAAA3E00000000BF007C
:1000A0000000803F0000000000084178D3BB438778
:1000B000D1133D190E3CC3BD4282AD2B3E68EC828C
:1000C00076BED98FE1A93E4C80EFFFBE01C4FF7F11
:1000D0003F0000000000006000B78000B700BD00D6
:1000E0000EE400BD00C3800011241FBECFE5D4E0A4
:1000F000DEBFCDBFE6EDF0E040E017C0B591A591C1
:1001000035912591059107FD0CC095918591EF01E1
:10011000F92FE82F05900D92A217B307D9F7FE012A
:1001200004C01D92A217B307E1F7E73EF40731F7C9
:0C0130000E9495060C949C00F894FFCFF0
:04013C004F4B0D0A0E
:03014000440D0A61
:100144001F920F920FB60F921124FF922F933F9399
:100154004F935F936F937F938F939F93AF93BF93CB
:10016400EF93FF938CB18CB18AE0F81280C0809138
:100174006000813431F481E08093BE000E946A07FC
:1001840073C0833441F40E94B40681E08093BE00BE
:100194000E946A0769C08E34D1F4E0E6F0E043813E
:1001A4006281818150E04053510970E060537109CC
:1001B40090E0C0970E94000781E08093BE000E94F7
:1001C4006A078091C2008F5F8093C2004DC0803562
:1001D40041F481E08093BD008093BE000E946A07D1
:1001E40043C0833561F41092C0001092BF000E9496
:1001F400CB0583E08093BE000E946A0735C0843536
:10020400A1F48091BF00893041F482E08093BE0064
:100214001092C0001092BF0005C00E94CB0583E07D
:100224008093BE000E946A071FC08F3419F4109295
:10023400BD001AC0823449F482E08093BD0081E09D
:100244008093BE000E946A070FC0843469F4E0E61C
:10025400F0E06281818170E090E00E94D20683E048
:100264008093BE000E946A071092C1000AC0809168
:10027400C100E82FF0E0E05AFF4FF0828F5F8093D7
:10028400C100FF91EF91BF91AF919F918F917F91A9
:100294006F915F914F913F912F91FF900F900FBEFF
:0602A4000F901F90189559
:1002AA00CF92DF92EF92FF920F931F93CF93DF9338
:1002BA0000D0CDB7DEB77C01AE014E5F5F4FBE0105
:1002CA006F5F7F4F0E94F905882309F44FC001E050
:1002DA0010E045C0CA80D980202F4C2D6D2DC70152
:1002EA000E9425068130C9F56D2D70E0FB01EE0FE5
:1002FA00FF1FEE0FFF1FEE0FFF1FE60FF71FEE0D9A
:10030A00FF1DEC0DF11D00838091BD00823011F4B8
:10031A000E945607C7010E945501892B41F080911E
:10032A00C2008F5F8093C20081E090E021C0898182
:10033A0090E0FC01EE0FFF1FEE0FFF1FEE0FFF1FF5
:10034A00E80FF91FEE0DFF1D8A81E80FF11D1082DB
:10035A008091C20081508093C2000F5F1F4F0A3004
:10036A0011050CF4B7CF80E090E002C081E090E084
:10037A000F900F90DF91CF911F910F91FF90EF9007
:06038A00DF90CF90089502
:1003900010C00E944F0758F00E94480740F029F40F
:1003A0005F3F29F00C945C0751110C943B070C94AF
:1003B0006D070E94730668F39923B1F3552391F3F7
:1003C000951B550BBB27AA2762177307840738F0C4
:1003D0009F5F5F4F220F331F441FAA1FA9F335D021
:1003E0000E2E3AF0E0E832D091505040E695001CD5
:1003F000CAF72BD0FE2F29D0660F771F881FBB1F8F
:10040000261737074807AB07B0E809F0BB0B802D6C
:10041000BF01FF2793585F4F3AF09E3F510578F098
:100420000C945C070C943B075F3FE4F3983ED4F3D5
:10043000869577956795B795F7959F5FC9F7880F6C
:10044000911D9695879597F90895E1E0660F771FBE
:10045000881FBB1F621773078407BA0720F0621B4F
:0E046000730B840BBA0BEE1F88F7E09508951E
:10046E000FC00E94480738F00E944F0720F09523D6
:10047E0011F00C945C070C946D0711240C943B073F
:10048E000E94730670F3959FC1F3950F50E0551FB0
:10049E00629FF001729FBB27F00DB11D639FAA27CB
:1004AE00F00DB11DAA1F649F6627B00DA11D661F1A
:1004BE00829F2227B00DA11D621F739FB00DA11D3B
:1004CE00621F839FA00D611D221F749F3327A00DF5
:1004DE00611D231F849F600D211D822F762F6A2F91
:1004EE0011249F5750409AF0F1F088234AF0EE0FF6
:1004FE00FF1FBB1F661F771F881F91505040A9F723
:10050E009E3F510580F00C945C070C943B075F3FB7
:10051E00E4F3983ED4F3869577956795B795F7955E
:10052E00E7959F5FC1F7FE2B880F911D96958795D6
:04053E0097F908958C
:1005420030E014C0E62FF0E0DF01AA0FBB1FAA0FB4
:10055200BB1FAA0FBB1FEA0FFB1FE80FF91FE30F18
:10056200F11D5081521709F44DC03F5F393050F3ED
:1005720030E013C0E32FF0E0DF01AA0FBB1FAA0F88
:10058200BB1FAA0FBB1FEA0FFB1FE80FF91FE40FE7
:10059200F11D50812517C1F13F5F393058F33BEA15
:1005A200439F412D11244695542F550F450F639FAC
:1005B200612D11246695362F330F630F50E01EC054
:1005C200E62FF0E0E50FF11DDF01AA0FBB1FAA0F16
:1005D200BB1FAA0FBB1FEA0FFB1FE80FF91FA42FB7
:1005E200B0E0A30FB11DEA0FFB1F7081271771F056
:1005F2003F5F01C030E0333018F35F5F5330D0F318
:1006020080E0089581E0089581E0089581E00895F1
:1006120011C00E94480738F00E944F0720F039F4B9
:100622009F3F19F426F40C946D070EF4E095E7FB56
:100632000C945C07E92F0E94730658F3BA176207FD
:1006420073078407950720F079F4A6F50C943A070E
:100652000EF4E0950B2EBA2FA02D0B01B9019001DB
:100662000C01CA01A0011124FF27591B99F0593F1F
:1006720050F4503E68F11A16F040A22F232F342F67
:100682004427585FF3CF469537952795A795F040B5
:100692005395C9F77EF41F16BA0B620B730B840BCA
:1006A200BAF09150A1F0FF0FBB1F661F771F881F82
:1006B200C2F70EC0BA0F621F731F841F48F48795DA
:1006C20077956795B795F7959E3F08F0B0CF9395CC
:0E06D200880F08F09927EE0F979587950895E9
:1006E0001F920F920FB60F9211248F939F93AF9387
:1006F000EF93FF938091BE008130C1F48091C100DF
:1007000090E0A0E0845C9E4FAF4FFC018491A7FD78
:1007100080818CB98091C1008F5F8093C10084304B
:1007200099F588E98AB91092C1002EC08230C1F4CF
:100730008091C10090E0A0E0805C9E4FAF4FFC0133
:100740008491A7FD80818CB98091C1008F5F8093D7
:10075000C1008330C9F488E98AB91092C10014C07D
:10076000833091F4E091C100F0E0E954FF4F8081C3
:100770008CB98091C1008F5F8093C100863021F4D5
:1007800088E98AB91092C100FF91EF91AF919F91D2
:0C0790008F910F900FBE0F901F901895D6
:10079C0008C016F00C9424070C946D0768940C9404
:1007AC005C070E947B06A8F39923C1F3AEF3DF9399
:1007BC00CF931F930F93FF92C92FDD2788232AF025
:1007CC002197660F771F881FDAF720E030E040E8AA
:1007DC005FEB9FE3883920F0803E38F021968F77CD
:1007EC000E944207ECE7F0E004C00E944207E9EAED
:1007FC00F0E00E944C068B01BE01EC01FB2E6F5702
:10080C0071097595771F880B990B0E94B70428E125
:10081C0032E741E35FE30E943702AF2D9801AE014E
:10082C00FF900F911F91CF91DF910E9409030C94BF
:02083C001307A0
:10083E00FA01EE0FFF1F309621053105A1F161156A
:10084E00710561F48038BFE39B0749F168949038D5
:10085E00810561F08038BFEF9B0741F099234AF57F
:10086E00FF3FE1053105210519F1E8940894E7955C
:10087E00D901AA2329F4AB2FBE2FF85FD0F310C0F5
:10088E00FF5F70F4A695E0F7F73950F019F0FF3AD4
:10089E0038F49F779F930DD00F9007FC90580895D2
:1008AE0046F00C946D0760E070E080E89FE30895D9
:1008BE004FE79F775F934F933F932F930E94CE0303
:1008CE002F913F914F915F910E9462070C94F20419
:1008DE001F920F920FB60F9211242F933F934F93A7
:1008EE005F936F937F938F939F93AF93BF93EF938A
:1008FE00FF938091C2006DEC869F612D1124669549
:10090E0066956695B1F015BA70E061507109072EC3
:10091E00000C880B990B0E94B7049B01AC0160E0A0
:10092E0070E080E090E40E941F040E949C0565BB6D
:10093E0002C015BA65BB1DBC1CBCFF91EF91BF91E7
:10094E00AF919F918F917F916F915F914F913F9159
:0C095E002F910F900FBE0F901F90189566
:10096A00E89409C097FB3EF490958095709561953F
:10097A007F4F8F4F9F4F9923A9F0F92F96E9BB27F5
:10098A009395F695879577956795B795F111F8CF71
:10099A00FAF4BB0F11F460FF1BC06F5F7F4F8F4FDC
:1009AA009F4F16C0882311F096E911C0772321F0D2
:1009BA009EE8872F762F05C0662371F096E8862F6A
:1009CA0070E060E02AF09A95660F771F881FDAF7C1
:0A09DA00880F9695879597F9089508
:1009E40008C029F416F00C945C070C943A070C9494
:1009F4006D070E947B06A8F39638A0F707F80F92BC
:100A0400E8942BE33AEA48EB5FE70E944A020F922C
:100A14000F920F924DB75EB70F920E946805E4E5FE
:100A2400F0E00E944C064F915F91EF91FF91E595A4
:100A3400EE1FFF1F49F0FE57E0684427EE0F441FE6
:100A4400FA95E1F74195550B0E942D050F9007FE8D
:060A54000C943207089526
:100A5A0004C00C945C070C9424070E947B06D8F30C
:100A6A009923C9F3940F511DA3F39150504094F068
:100A7A0059F0882332F0660F771F881F9150504033
:100A8A00C1F79E3F51052CF7880F911D96958795C2
:100A9A0097F908955F3FACF0983E9CF0BB27869586
:100AAA0077956795B79508F4B1609395C1F7BB0F31
:100ABA0058F711F460FFE8CF6F5F7F4F8F4F9F4F5A
:060ACA00E3CF0C943B0792
:100AD000FA01DC01AA0FBB1F9B01AC01BF5728F430
:100AE000222733274427507820C0B75190F4AB2FEA
:100AF0000024469537952795011CA395D2F3002035
:100B000071F0220F331F441FB395DAF30ED00C940B
:100B1000410761307105A0E88A07B94630F49B01AE
:100B2000AC016627772788279078309621F02083BC
:080B30003183428353830895D1
:100B38000E947B0688F09F5798F0B92F9927B751E4
:100B4800B0F0E1F0660F771F881F991F1AF0BA9569
:100B5800C9F714C0B13091F00E943A07B1E0089586
:100B68000C943A07672F782F8827B85F39F0B93F78
:100B7800CCF3869577956795B395D9F73EF490951C
:0E0B88008095709561957F4F8F4F9F4F089518
:100B96002091C000A7EBB0E081E3820F11968C9301
:100BA60011973091BF0081E3830F12968C931297B1
:100BB600822F90E0FC01EE0FFF1FEE0FFF1FEE0FDE
:100BC600FF1FE80FF91FEA59FF4FE30FF11D808160
:100BD600805D13968C932F5F2093C000293028F0F8
:0C0BE6001092C0003F5F3093BF000895E4
:100BF200CF93DF93EC01A0E0B0E01FC0FD01EE0F48
:100C0200FF1FEE0FFF1FEE0FFF1FEA0FFB1FEC0F80
:100C1200FD1FE20FF31F9081911106C0FB01A0831B
:100C2200FA01208381E00DC02F5F3F4F02C020E018
:100C320030E02930310514F31196A930B105BCF327
:080C420080E0DF91CF910895DD
:100C4A000F931F93CF93DF938C01C62FD42F0E944B
:100C5A00A102811114C06C2F70E0FB01EE0FFF1F7F
:100C6A00EE0FFF1FEE0FFF1FE60FF71FE00FF11F3A
:100C7A00ED0FF11D8081882321F080E003C080E020
:0E0C8A0001C081E0DF91CF911F910F9108957D
:100C9800DF93CF931F930F93FF92EF92DF927B0125
:100CA8008C01689406C0DA2EEF010E943702FE011B
:100CB800E894A5912591359145915591A6F3EF01B9
:100CC8000E940903FE019701A801DA9469F7DF90F1
:0E0CD800EF90FF900F911F91CF91DF91089543
:100CE60057FD9058440F551F59F05F3F71F04795D7
:100CF600880F97FB991F61F09F3F79F087950895BC
:100D0600121613061406551FF2CF4695F1DF08C0DA
:100D1600161617061806991FF1CF869571056105F7
:040D26000894089590
:100D2A000E94EB0678948091BD00813099F486E6A2
:100D3A0090E00E945501019721F483E08093BD0061
:100D4A0003C082E08093BD0082E08093BE000E94CF
:0E0D5A006A07E9CF823039F70E945607E4CFCE
:100D680020E030E017C0F901EE0FFF1FEE0FFF1F64
:100D7800EE0FFF1FE20FF31FEA59FF4FE80FF91FAD
:100D88001082019602C080E090E0893091055CF302
:0C0D98002F5F3F4F29303105B4F3089560
:100DA400E7EBF0E081836283C197615371099C0191
:100DB400220F331F220F331F220F331F820F931F63
:100DC4008A599F4FDC01A60FB71F8C91805D8383E6
:020DD400089580
:100DD6001DBC1CBC80E188BF91E09EBD20E43CE9BF
:100DE6003BBD2ABD89BF10BC80E489B988E98AB9B0
:0A0DF60086E880BD0E94B40608954F
:100E00000197615071099C01220F331F220F331F7C
:100E1000220F331F820F931F8A599F4FFC01E60F49
:060E2000F71F4083089556
:100E2600092E0394000C11F4882352F0BB0F40F4F2
:100E3600BF2B11F460FF04C06F5F7F4F8F4F9F4F32
:020E460008950D
:100E48009F3F31F0915020F4879577956795B79536
:0C0E5800880F911D9695879597F90895D5
:100E64009B01AC0160E070E080E89FE30C946607AE
:0E0E7400E894BB2766277727CB0197F90895EE
:0E0E82005058BB27AA270E9409030C9413079F
:0E0E900000240A94161617061806090608957F
:0E0E9E0000240A941216130614060506089581
:0C0EAC00F8948091BD008230E1F30895BD
:0C0EB80097F99F6780E870E060E0089503
:080EC4000E9437020C94130791
:080ECC000E94C8010C941307F9
:060ED40088EB8AB90895C5
:060EDA009FEF80EC08957B
:040EE0000C9400006E
:060EE4004E1010100D0A73
:00000001FF
