:020000020000FC
:0200000029C015
:0200200052C0CC
:02002C0084C08E
:020030007AC094
:100054000FE50DBF04E00EBF0E947E000E94480021
:100064000E9458000E945A000E944D000E944300C2
:1000740078941BB115FF0C943B0000E60BB90C946B
:100084003B00A0E6B0E0EAE9F1E008958FEF8ABB17
:100094008FEF84BB08957EB571607EBD5FE568ED2A
:1000A4005DBD6CBD29B7246029BF089541E0089562
:1000B40000E410E009B910BD08E90AB906E000BD82
:1000C4000895EA2FFB2F2191AE2FBF2FEEE8F1E028
:1000D400E20F259178B7706178BF50E05BBB45BBF8
:1000E4002BBB5FE568ED5DBD6CBD441F09F0189541
:1000F40041E0A2E6B0E01895A0E6B0E00AE01BE01B
:100104000D931A951030E1F70895A0E6B0E00A2F98
:100114000A9518E0A10F1D911C93A250A017D9F7BE
:100124000895EAE9F1E0059104BD0A3059F1FBCFE5
:1001340018952CB12CB12F2D0E94A4001BB117FFD0
:100144001895F7CF203318F42A3099F008952933FD
:1001540028F0233459F02E3449F00895A0E6B0E095
:1001640000E3201B2C930E94870008950E947E00C8
:100174000895A0E6B0E0A3950E94C100089508EB9D
:100184000AB9089508E90AB91895C0F9A4B0999272
:0A01940082B88090FFFF4F4B0D0A68
:00000001FF
