:100000000C942E000C94AB010C94AB010C94AB013E
:100010000C94AB010C94AB010C94AB010C94AB01B0
:100020000C9450010C94AB010C94AB010C942C017A
:100030000C9408010C94AB010C94AB010C94AB0133
:100040000C94AB010C94AB010C94AB010C94AB0180
:100050000C94AB010060006C00035A0011241FBE19
:10006000CFE5D4E0DEBFCDBFE4E5F0E040E017C06F
:10007000B591A59135912591059107FD0CC09591FC
:100080008591EF01F92FE82F05900D92A217B30784
:10009000D9F7FE0104C01D92A217B307E1F7EB35B3
:1000A000F40731F70E94DE000C945600F894FFCF5D
:0400B0004F4B0A00A8
:1000B400A0E6B0E008958FEF8ABB8FEF84BB08956C
:1000C4007EB571607EBD5FE568ED5DBD6CBD29B731
:1000D400246029BF089541E0342E089500E410E01F
:1000E40009B910BD08E90AB906E000BD0895E42D78
:1000F400F52D21914E2E5F2EE0E5F4E0E20F2191E3
:1001040078B7706178BF50E05BBB35BA2BBB5FE555
:1001140068ED5DBD6CBD330C09F0189541E0342EDB
:10012400A2E6B0E01895A0E6B0E00AE01BE00D936B
:100134001A951030E1F70895A0E6B0E00A2F0A9569
:1001440018E0A10F1D911C93A250A017D9F7089590
:10015400ECE4F4E0019104BD0A30FCCF18952CB115
:100164002CB12F2D0E94BA001BB117FF1895F7CFA1
:10017400282F203318F42A30C9F00895293328F0A1
:10018400233459F02E3449F00895A0E6B0E000E39A
:10019400201B2C930E949E0008950E9495000895B0
:1001A40008EB0AB9089508E90AB91895A0E6B0E081
:0801B400A3954A2E5B2E08956D
:1001BC00CF93DF93CDB7DEB72C970FB6F894DEBF95
:1001CC000FBECDBF8CE0E0E6F0E0DE0111960190B1
:1001DC000D928A95E1F70E945A0080EB90E0A0E026
:1001EC000E949500CE0101960E9495000E945D0030
:1001FC000E946D000E949D010E9462000E945A00A4
:04020C007894FFCF14
:100210001F920F920FB60F9211242F933F934F937B
:100220005F936F937F938F939F93AF93BF93EF935E
:10023000FF930E947401FF91EF91BF91AF919F9145
:100240008F917F916F915F914F913F912F910F907F
:080250000FBE0F901F901895DE
:100258001F920F920FB60F9211242F933F934F9333
:100268005F936F937F938F939F93AF93BF93EF9316
:10027800FF930E948C01FF91EF91BF91AF919F91E5
:100288008F917F916F915F914F913F912F910F9037
:080298000FBE0F901F90189596
:1002A0001F920F920FB60F9211242F933F934F93EB
:1002B0005F936F937F938F939F93AF93BF93EF93CE
:1002C000FF930E947900FF91EF91BF91AF919F91B1
:1002D0008F917F916F915F914F913F912F910F90EF
:0802E0000FBE0F901F9018954E
:1002E80020E030E00FC0C901032E000CAA0B805596
:1002F8009F4FAF4FFC018491A7FD80818CB984BDCD
:100308002F5F3F4F2330310574F30E94A8010895F1
:10031800CF93C2B78CB18CB18C2F90E00E94BA00F9
:10032800CA3011F40E94A5015F990E948C01CF91F7
:02033800089526
:10033A0080E489B910BC88E98AB986E080BD08954D
:06034A0088EB8AB908955A
:0603500088E98AB9089556
:040356000C94000003
:0C035A00C0F9A4B0999282B88090FFFF17
:00000001FF
