:100000000C945B000C9458040C9458040C94580401
:100010000C9458040C9458040C9458040C945804F0
:100020000C9435030C9458040C9458040C9411034C
:100030000C94ED020C9458040C9458040C9458043D
:100040000C9458040C9458040C9458040C945804C0
:100050000C94580408000000BE922449123EABAA3A
:10006000AA2ABECDCCCC4C3E00000080BEABAAAAD2
:10007000AA3E00000000BF000000803F000000001A
:1000800000084178D3BB4387D1133D190E3CC3BD53
:100090004282AD2B3E68EC8276BED98FE1A93E4C00
:1000A00080EFFFBE01C4FF7F3F0000000000006042
:1000B000006A0008B40011241FBECFE5D4E0DEBF03
:1000C000CDBFEEEAF0E040E017C0B591A5913591C3
:1000D0002591059107FD0CC095918591EF01F92FB0
:1000E000E82F05900D92A217B307D9F7FE0104C0BF
:1000F0001D92A217B307E1F7E53BF40731F70E9421
:0A010000FA030C948300F894FFCF7B
:0C010A00C0F9A4B0999282B88090FFFF69
:040116004F4B0A0041
:10011A0010C00E94290458F00E94220440F029F4D9
:10012A005F3F29F00C943D0451110C9431040C9456
:10013A0055040E94590368F39923B1F3552391F3A7
:10014A00951B550BBB27AA2762177307840738F03C
:10015A009F5F5F4F220F331F441FAA1FA9F335D099
:10016A000E2E3AF0E0E832D091505040E695001C4D
:10017A00CAF72BD0FE2F29D0660F771F881FBB1F07
:10018A00261737074807AB07B0E809F0BB0B802DE5
:10019A00BF01FF2793585F4F3AF09E3F510578F011
:1001AA000C943D040C9431045F3FE4F3983ED4F37D
:1001BA00869577956795B795F7959F5FC9F7880FE5
:1001CA00911D9695879597F90895E1E0660F771F37
:1001DA00881FBB1F621773078407BA0720F0621BC8
:0E01EA00730B840BBA0BEE1F88F7E095089597
:1001F8000FC00E94220438F00E94290420F09523A1
:1002080011F00C943D040C94550411240C94310401
:100218000E94590370F3959FC1F3950F50E0551F45
:10022800629FF001729FBB27F00DB11D639FAA2743
:10023800F00DB11DAA1F649F6627B00DA11D661F92
:10024800829F2227B00DA11D621F739FB00DA11DB3
:10025800621F839FA00D611D221F749F3327A00D6D
:10026800611D231F849F600D211D822F762F6A2F09
:1002780011249F5750409AF0F1F088234AF0EE0F6E
:10028800FF1FBB1F661F771F881F91505040A9F79B
:100298009E3F510580F00C943D040C9431045F3F5F
:1002A800E4F3983ED4F3869577956795B795F795D7
:1002B800E7959F5FC1F7FE2B880F911D969587954F
:0402C80097F9089505
:1002CC0011C00E94220438F00E94290420F039F455
:1002DC009F3F19F426F40C9455040EF4E095E7FBBB
:1002EC000C943D04E92F0E94590358F3BA17620786
:1002FC0073078407950720F079F4A6F50C94300465
:10030C000EF4E0950B2EBA2FA02D0B01B901900124
:10031C000C01CA01A0011124FF27591B99F0593F68
:10032C0050F4503E68F11A16F040A22F232F342FB0
:10033C004427585FF3CF469537952795A795F040FE
:10034C005395C9F77EF41F16BA0B620B730B840B13
:10035C00BAF09150A1F0FF0FBB1F661F771F881FCB
:10036C00C2F70EC0BA0F621F731F841F48F4879523
:10037C0077956795B795F7959E3F08F0B0CF939515
:0E038C00880F08F09927EE0F97958795089532
:10039A0008C016F00C94D5030C94550468940C9478
:1003AA003D040E946103A8F39923C1F3AEF3DF93DE
:1003BA00CF931F930F93FF92C92FDD2788232AF02B
:1003CA002197660F771F881FDAF720E030E040E8B0
:1003DA005FEB9FE3883920F0803E38F021968F77D3
:1003EA000E941504E4E5F0E004C00E941504E1E867
:1003FA00F0E00E94C6028B01BE01EC01FB2E6F5792
:10040A0071097595771F880B990B0E94200228E1C4
:10041A0032E741E35FE30E94FC00AF2D9801AE0191
:10042A00FF900F911F91CF91DF910E9466010C946A
:02043A00A60317
:10043C00E89409C097FB3EF4909580957095619572
:10044C007F4F8F4F9F4F9923A9F0F92F96E9BB2728
:10045C009395F695879577956795B795F111F8CFA4
:10046C00FAF4BB0F11F460FF1BC06F5F7F4F8F4F0F
:10047C009F4F16C0882311F096E911C0772321F005
:10048C009EE8872F762F05C0662371F096E8862F9D
:10049C0070E060E02AF09A95660F771F881FDAF7F4
:0A04AC00880F9695879597F908953B
:1004B6006091690070E080E090E00E941E020E9458
:1004C6000C042BE930E24AE95EE30E94470420E08F
:1004D60030E040E85FE30E9415040E941B04FB0124
:1004E600E05AFF4F808190E0A0E0865F9E4FAF4FBD
:1004F600FC018491A7FD808198B791E098BF1BBA53
:100506009091690095BB8BBB8FE58DBD88ED8CBD49
:1005160080916900803821F0880F809369000895E2
:0805260081E080936900089553
:10052E000E94610388F09F5798F0B92F9927B75111
:10053E00B0F0E1F0660F771F881F991F1AF0BA9579
:10054E00C9F714C0B13091F00E943004B1E00895A3
:10055E000C943004672F782F8827B85F39F0B93F95
:10056E00CCF3869577956795B395D9F73EF490952C
:0E057E008095709561957F4F8F4F9F4F089528
:10058C00DF93CF931F930F93FF92EF92DF927B0138
:10059C008C01689406C0DA2EEF010E94FC00FE016B
:1005AC00E894A5912591359145915591A6F3EF01CC
:1005BC000E946601FE019701A801DA9469F7DF90A9
:0E05CC00EF90FF900F911F91CF91DF91089556
:1005DA001F920F920FB60F9211242F933F934F93AE
:1005EA005F936F937F938F939F93AF93BF93EF9391
:1005FA00FF930E947B03FF91EF91BF91AF919F916F
:10060A008F917F916F915F914F913F912F910F90B1
:08061A000FBE0F901F90189510
:100622001F920F920FB60F9211242F933F934F9365
:100632005F936F937F938F939F93AF93BF93EF9348
:10064200FF930E94B703FF91EF91BF91AF919F91EA
:100652008F917F916F915F914F913F912F910F9069
:080662000FBE0F901F901895C8
:10066A001F920F920FB60F9211242F933F934F931D
:10067A005F936F937F938F939F93AF93BF93EF9300
:10068A00FF930E945B02FF91EF91BF91AF919F91FF
:10069A008F917F916F915F914F913F912F910F9021
:0806AA000FBE0F901F90189580
:1006B20057FD9058440F551F59F05F3F71F0479511
:1006C200880F97FB991F61F09F3F79F087950895F6
:1006D200121613061406551FF2CF4695F1DF08C015
:1006E200161617061806991FF1CF86957105610532
:0406F20008940895CB
:1006F60020E030E00FC0C901032E000CAA0B8A5E71
:100706009E4FAF4FFC018491A7FD80818CB984BDBB
:100716002F5F3F4F2330310574F30E945204089532
:1007260088E090E00CC09C0121503109F901E05AA3
:10073600FF4F4081FC01E05AFF4F4083C901181664
:0607460019068CF3089572
:10074C00092E0394000C11F4882352F0BB0F40F4D3
:10075C00BF2B11F460FF04C06F5F7F4F8F4F9F4F13
:02076C000895EE
:10076E00CF93C2B78CB18CB18C2F0E94C703CA3005
:10077E0011F40E944F045F990E94B703CF91089520
:10078E0090ED980F9A3018F40E9437040895833430
:0C079E0011F08E3411F40E94E303089562
:1007AA009F3F31F0915020F4879577956795B795DB
:0C07BA00880F911D9695879597F908957A
:1007C60080E090E006C0FC01E05AFF4F2AE020835B
:0A07D600019689309105BCF30895E7
:1007E0008EB581E08EBD8FE58DBD88ED8CBD84E03A
:0407F00089BF089520
:1007F4000E94E3030E9443040E9404040E94F00345
:040804007894FFCF16
:1008080080E489B910BC88E98AB986E080BD08957A
:100818000E94CD0129ED3BE54EED5EE30C944B04BF
:0E0828005058BB27AA270E9466010C94A60315
:0E0836000E9497026894B1110C943104089549
:0E08440000240A9416161706180609060895D1
:0E08520000240A9412161306140605060895D3
:0E086000E894BB2766277727CB0197F9089508
:0C086E008053809360000E949303089563
:0C087A0097F99F6780E870E060E0089547
:080886008FEF8ABB84BB0895CB
:08088E000E948D000C94A603EA
:080896000E94FC000C94A60373
:06089E0088EB8AB9089501
:0608A40088E98AB90895FD
:0608AA009FEF80EC0895B1
:0408B0000C940000A4
:0908B40001010101010101010132
:0108BD000139
:00000001FF
